{
  "contractName": "HiddenLabs",
  "abi": [
    {
      "inputs": [
        {
          "internalType": "string",
          "name": "baseURI",
          "type": "string"
        }
      ],
      "stateMutability": "nonpayable",
      "type": "constructor"
    },
    {
      "anonymous": false,
      "inputs": [
        {
          "indexed": true,
          "internalType": "address",
          "name": "owner",
          "type": "address"
        },
        {
          "indexed": true,
          "internalType": "address",
          "name": "approved",
          "type": "address"
        },
        {
          "indexed": true,
          "internalType": "uint256",
          "name": "tokenId",
          "type": "uint256"
        }
      ],
      "name": "Approval",
      "type": "event"
    },
    {
      "anonymous": false,
      "inputs": [
        {
          "indexed": true,
          "internalType": "address",
          "name": "owner",
          "type": "address"
        },
        {
          "indexed": true,
          "internalType": "address",
          "name": "operator",
          "type": "address"
        },
        {
          "indexed": false,
          "internalType": "bool",
          "name": "approved",
          "type": "bool"
        }
      ],
      "name": "ApprovalForAll",
      "type": "event"
    },
    {
      "anonymous": false,
      "inputs": [
        {
          "indexed": true,
          "internalType": "address",
          "name": "previousOwner",
          "type": "address"
        },
        {
          "indexed": true,
          "internalType": "address",
          "name": "newOwner",
          "type": "address"
        }
      ],
      "name": "OwnershipTransferred",
      "type": "event"
    },
    {
      "anonymous": false,
      "inputs": [
        {
          "indexed": true,
          "internalType": "address",
          "name": "from",
          "type": "address"
        },
        {
          "indexed": true,
          "internalType": "address",
          "name": "to",
          "type": "address"
        },
        {
          "indexed": true,
          "internalType": "uint256",
          "name": "tokenId",
          "type": "uint256"
        }
      ],
      "name": "Transfer",
      "type": "event"
    },
    {
      "inputs": [],
      "name": "MAX_PET_ID",
      "outputs": [
        {
          "internalType": "uint256",
          "name": "",
          "type": "uint256"
        }
      ],
      "stateMutability": "view",
      "type": "function",
      "constant": true
    },
    {
      "inputs": [],
      "name": "_baseTokenURI",
      "outputs": [
        {
          "internalType": "string",
          "name": "",
          "type": "string"
        }
      ],
      "stateMutability": "view",
      "type": "function",
      "constant": true
    },
    {
      "inputs": [],
      "name": "_ccAddress",
      "outputs": [
        {
          "internalType": "address",
          "name": "",
          "type": "address"
        }
      ],
      "stateMutability": "view",
      "type": "function",
      "constant": true
    },
    {
      "inputs": [],
      "name": "_claimsPaused",
      "outputs": [
        {
          "internalType": "bool",
          "name": "",
          "type": "bool"
        }
      ],
      "stateMutability": "view",
      "type": "function",
      "constant": true
    },
    {
      "inputs": [],
      "name": "_currentPetId",
      "outputs": [
        {
          "internalType": "uint256",
          "name": "",
          "type": "uint256"
        }
      ],
      "stateMutability": "view",
      "type": "function",
      "constant": true
    },
    {
      "inputs": [],
      "name": "_merkleLocked",
      "outputs": [
        {
          "internalType": "bool",
          "name": "",
          "type": "bool"
        }
      ],
      "stateMutability": "view",
      "type": "function",
      "constant": true
    },
    {
      "inputs": [],
      "name": "_merkleRoot",
      "outputs": [
        {
          "internalType": "bytes32",
          "name": "",
          "type": "bytes32"
        }
      ],
      "stateMutability": "view",
      "type": "function",
      "constant": true
    },
    {
      "inputs": [
        {
          "internalType": "address",
          "name": "",
          "type": "address"
        }
      ],
      "name": "_minted",
      "outputs": [
        {
          "internalType": "bool",
          "name": "",
          "type": "bool"
        }
      ],
      "stateMutability": "view",
      "type": "function",
      "constant": true
    },
    {
      "inputs": [
        {
          "internalType": "uint256",
          "name": "",
          "type": "uint256"
        }
      ],
      "name": "_petGenetics",
      "outputs": [
        {
          "internalType": "bytes32",
          "name": "",
          "type": "bytes32"
        }
      ],
      "stateMutability": "view",
      "type": "function",
      "constant": true
    },
    {
      "inputs": [],
      "name": "_publicMintStatus",
      "outputs": [
        {
          "internalType": "enum HiddenLabs.EPublicMintStatus",
          "name": "",
          "type": "uint8"
        }
      ],
      "stateMutability": "view",
      "type": "function",
      "constant": true
    },
    {
      "inputs": [],
      "name": "_reserved",
      "outputs": [
        {
          "internalType": "uint256",
          "name": "",
          "type": "uint256"
        }
      ],
      "stateMutability": "view",
      "type": "function",
      "constant": true
    },
    {
      "inputs": [],
      "name": "_systemAddress",
      "outputs": [
        {
          "internalType": "address",
          "name": "",
          "type": "address"
        }
      ],
      "stateMutability": "view",
      "type": "function",
      "constant": true
    },
    {
      "inputs": [],
      "name": "_w1",
      "outputs": [
        {
          "internalType": "address",
          "name": "",
          "type": "address"
        }
      ],
      "stateMutability": "view",
      "type": "function",
      "constant": true
    },
    {
      "inputs": [
        {
          "internalType": "address",
          "name": "to",
          "type": "address"
        },
        {
          "internalType": "uint256",
          "name": "tokenId",
          "type": "uint256"
        }
      ],
      "name": "approve",
      "outputs": [],
      "stateMutability": "nonpayable",
      "type": "function"
    },
    {
      "inputs": [
        {
          "internalType": "address",
          "name": "owner",
          "type": "address"
        }
      ],
      "name": "balanceOf",
      "outputs": [
        {
          "internalType": "uint256",
          "name": "",
          "type": "uint256"
        }
      ],
      "stateMutability": "view",
      "type": "function",
      "constant": true
    },
    {
      "inputs": [
        {
          "internalType": "uint256",
          "name": "tokenId",
          "type": "uint256"
        }
      ],
      "name": "getApproved",
      "outputs": [
        {
          "internalType": "address",
          "name": "",
          "type": "address"
        }
      ],
      "stateMutability": "view",
      "type": "function",
      "constant": true
    },
    {
      "inputs": [
        {
          "internalType": "address",
          "name": "owner",
          "type": "address"
        },
        {
          "internalType": "address",
          "name": "operator",
          "type": "address"
        }
      ],
      "name": "isApprovedForAll",
      "outputs": [
        {
          "internalType": "bool",
          "name": "",
          "type": "bool"
        }
      ],
      "stateMutability": "view",
      "type": "function",
      "constant": true
    },
    {
      "inputs": [],
      "name": "name",
      "outputs": [
        {
          "internalType": "string",
          "name": "",
          "type": "string"
        }
      ],
      "stateMutability": "view",
      "type": "function",
      "constant": true
    },
    {
      "inputs": [],
      "name": "owner",
      "outputs": [
        {
          "internalType": "address",
          "name": "",
          "type": "address"
        }
      ],
      "stateMutability": "view",
      "type": "function",
      "constant": true
    },
    {
      "inputs": [
        {
          "internalType": "uint256",
          "name": "tokenId",
          "type": "uint256"
        }
      ],
      "name": "ownerOf",
      "outputs": [
        {
          "internalType": "address",
          "name": "",
          "type": "address"
        }
      ],
      "stateMutability": "view",
      "type": "function",
      "constant": true
    },
    {
      "inputs": [],
      "name": "renounceOwnership",
      "outputs": [],
      "stateMutability": "nonpayable",
      "type": "function"
    },
    {
      "inputs": [
        {
          "internalType": "address",
          "name": "from",
          "type": "address"
        },
        {
          "internalType": "address",
          "name": "to",
          "type": "address"
        },
        {
          "internalType": "uint256",
          "name": "tokenId",
          "type": "uint256"
        }
      ],
      "name": "safeTransferFrom",
      "outputs": [],
      "stateMutability": "nonpayable",
      "type": "function"
    },
    {
      "inputs": [
        {
          "internalType": "address",
          "name": "from",
          "type": "address"
        },
        {
          "internalType": "address",
          "name": "to",
          "type": "address"
        },
        {
          "internalType": "uint256",
          "name": "tokenId",
          "type": "uint256"
        },
        {
          "internalType": "bytes",
          "name": "_data",
          "type": "bytes"
        }
      ],
      "name": "safeTransferFrom",
      "outputs": [],
      "stateMutability": "nonpayable",
      "type": "function"
    },
    {
      "inputs": [
        {
          "internalType": "address",
          "name": "operator",
          "type": "address"
        },
        {
          "internalType": "bool",
          "name": "approved",
          "type": "bool"
        }
      ],
      "name": "setApprovalForAll",
      "outputs": [],
      "stateMutability": "nonpayable",
      "type": "function"
    },
    {
      "inputs": [
        {
          "internalType": "bytes4",
          "name": "interfaceId",
          "type": "bytes4"
        }
      ],
      "name": "supportsInterface",
      "outputs": [
        {
          "internalType": "bool",
          "name": "",
          "type": "bool"
        }
      ],
      "stateMutability": "view",
      "type": "function",
      "constant": true
    },
    {
      "inputs": [],
      "name": "symbol",
      "outputs": [
        {
          "internalType": "string",
          "name": "",
          "type": "string"
        }
      ],
      "stateMutability": "view",
      "type": "function",
      "constant": true
    },
    {
      "inputs": [
        {
          "internalType": "uint256",
          "name": "tokenId",
          "type": "uint256"
        }
      ],
      "name": "tokenURI",
      "outputs": [
        {
          "internalType": "string",
          "name": "",
          "type": "string"
        }
      ],
      "stateMutability": "view",
      "type": "function",
      "constant": true
    },
    {
      "inputs": [
        {
          "internalType": "address",
          "name": "from",
          "type": "address"
        },
        {
          "internalType": "address",
          "name": "to",
          "type": "address"
        },
        {
          "internalType": "uint256",
          "name": "tokenId",
          "type": "uint256"
        }
      ],
      "name": "transferFrom",
      "outputs": [],
      "stateMutability": "nonpayable",
      "type": "function"
    },
    {
      "inputs": [
        {
          "internalType": "address",
          "name": "newOwner",
          "type": "address"
        }
      ],
      "name": "transferOwnership",
      "outputs": [],
      "stateMutability": "nonpayable",
      "type": "function"
    },
    {
      "inputs": [
        {
          "internalType": "uint256",
          "name": "salt",
          "type": "uint256"
        },
        {
          "internalType": "bytes",
          "name": "signature",
          "type": "bytes"
        }
      ],
      "name": "mintHiddenLabs",
      "outputs": [],
      "stateMutability": "nonpayable",
      "type": "function"
    },
    {
      "inputs": [
        {
          "internalType": "bytes32[]",
          "name": "merkleProof",
          "type": "bytes32[]"
        },
        {
          "internalType": "uint256",
          "name": "ticketNumber",
          "type": "uint256"
        }
      ],
      "name": "allowListAdopt",
      "outputs": [],
      "stateMutability": "payable",
      "type": "function",
      "payable": true
    },
    {
      "inputs": [],
      "name": "reservedMint",
      "outputs": [],
      "stateMutability": "nonpayable",
      "type": "function"
    },
    {
      "inputs": [
        {
          "internalType": "bool",
          "name": "val",
          "type": "bool"
        }
      ],
      "name": "pauseClaim",
      "outputs": [],
      "stateMutability": "nonpayable",
      "type": "function"
    },
    {
      "inputs": [
        {
          "internalType": "uint256",
          "name": "status",
          "type": "uint256"
        }
      ],
      "name": "setPublicMintStatus",
      "outputs": [],
      "stateMutability": "nonpayable",
      "type": "function"
    },
    {
      "inputs": [
        {
          "internalType": "uint256",
          "name": "num",
          "type": "uint256"
        }
      ],
      "name": "setMintSlotLength",
      "outputs": [],
      "stateMutability": "nonpayable",
      "type": "function"
    },
    {
      "inputs": [
        {
          "internalType": "string",
          "name": "baseURI",
          "type": "string"
        }
      ],
      "name": "setBaseURI",
      "outputs": [],
      "stateMutability": "nonpayable",
      "type": "function"
    },
    {
      "inputs": [
        {
          "internalType": "uint256",
          "name": "id",
          "type": "uint256"
        },
        {
          "internalType": "bytes32",
          "name": "genes",
          "type": "bytes32"
        }
      ],
      "name": "setGenetics",
      "outputs": [],
      "stateMutability": "nonpayable",
      "type": "function"
    },
    {
      "inputs": [
        {
          "internalType": "address",
          "name": "systemAddress",
          "type": "address"
        }
      ],
      "name": "setSystemAddress",
      "outputs": [],
      "stateMutability": "nonpayable",
      "type": "function"
    },
    {
      "inputs": [
        {
          "internalType": "address",
          "name": "ccAddress",
          "type": "address"
        }
      ],
      "name": "setCoolCatsAddress",
      "outputs": [],
      "stateMutability": "nonpayable",
      "type": "function"
    },
    {
      "inputs": [
        {
          "internalType": "address",
          "name": "wallet",
          "type": "address"
        }
      ],
      "name": "setWithdrawalWallet",
      "outputs": [],
      "stateMutability": "nonpayable",
      "type": "function"
    },
    {
      "inputs": [
        {
          "internalType": "bytes32",
          "name": "merkleRoot",
          "type": "bytes32"
        }
      ],
      "name": "setMerkleRoot",
      "outputs": [],
      "stateMutability": "nonpayable",
      "type": "function"
    },
    {
      "inputs": [
        {
          "internalType": "uint256",
          "name": "id",
          "type": "uint256"
        }
      ],
      "name": "getGenetics",
      "outputs": [
        {
          "internalType": "bytes32",
          "name": "genes",
          "type": "bytes32"
        }
      ],
      "stateMutability": "view",
      "type": "function",
      "constant": true
    },
    {
      "inputs": [],
      "name": "withdraw",
      "outputs": [],
      "stateMutability": "payable",
      "type": "function",
      "payable": true
    },
    {
      "inputs": [],
      "name": "lockMerkle",
      "outputs": [],
      "stateMutability": "nonpayable",
      "type": "function"
    }
  ],
  "bytecode": "0x6080604052600880546001600160a01b0319908116731ffa3371a45c22b1284fe5a251ed64f40580a1e31790915560098054909116905561270f600a556064600b556000600c55600d805461ffff191660011790553480156200006157600080fd5b5060405162002f8538038062002f85833981016040819052620000849162000233565b6040805180820182526009815268436f6f6c205065747360b81b6020808301918252835180850190945260048452635045545360e01b908401528151919291620000d19160009162000177565b508051620000e790600190602084019062000177565b50505062000104620000fe6200012160201b60201c565b62000125565b80516200011990600e90602084019062000177565b50506200034c565b3390565b600680546001600160a01b038381166001600160a01b0319831681179093556040519116919082907f8be0079c531659141344cd1fd0a4f28419497f9722a3daafe3b4186f6b6457e090600090a35050565b82805462000185906200030f565b90600052602060002090601f016020900481019282620001a95760008555620001f4565b82601f10620001c457805160ff1916838001178555620001f4565b82800160010185558215620001f4579182015b82811115620001f4578251825591602001919060010190620001d7565b506200020292915062000206565b5090565b5b8082111562000202576000815560010162000207565b634e487b7160e01b600052604160045260246000fd5b600060208083850312156200024757600080fd5b82516001600160401b03808211156200025f57600080fd5b818501915085601f8301126200027457600080fd5b8151818111156200028957620002896200021d565b604051601f8201601f19908116603f01168101908382118183101715620002b457620002b46200021d565b816040528281528886848701011115620002cd57600080fd5b600093505b82841015620002f15784840186015181850187015292850192620002d2565b82841115620003035760008684830101525b98975050505050505050565b600181811c908216806200032457607f821691505b602082108114156200034657634e487b7160e01b600052602260045260246000fd5b50919050565b612c29806200035c6000396000f3fe6080604052600436106102075760003560e01c80638da5cb5b116101145780638da5cb5b146104d657806395d89b41146104eb5780639888cc831461050057806398994de3146105205780639b2858a214610535578063a002233414610562578063a22cb46514610582578063a2b3b17e146105a2578063ae262afe146105c2578063ae3aab3b146105d5578063b1e4edda146105f5578063b5225c6514610622578063b88d4fde1461063c578063c87b56dd1461065c578063cfc86f7b1461067c578063dd23ef0614610691578063e4d6b5ff146106b1578063e5554d58146106c7578063e985e9c5146106e7578063ea6c3c0d14610707578063f2fde38b14610727578063fa1d6d1a1461074757600080fd5b806301ffc9a71461020c578063062101971461024157806306fdde0314610263578063081812fc14610285578063095ea7b3146102bd5780631a2ff46d146102dd57806323b872dd146102fd5780632fc37ab21461031d5780633ccfd60b1461034157806342842e0e1461034957806347608412146103695780634f7243161461037f57806355f804b3146103a65780636352211e146103c65780636881c3e9146103e65780636aaa571d146104065780636e04b2b01461041c57806370a0823114610431578063715018a61461045157806375796f76146104665780637cb64759146104865780637de77ecc146104a6575b600080fd5b34801561021857600080fd5b5061022c6102273660046124f7565b610766565b60405190151581526020015b60405180910390f35b34801561024d57600080fd5b5061026161025c366004612530565b6107b8565b005b34801561026f57600080fd5b50610278610812565b60405161023891906125a3565b34801561029157600080fd5b506102a56102a03660046125b6565b6108a4565b6040516001600160a01b039091168152602001610238565b3480156102c957600080fd5b506102616102d83660046125cf565b61092c565b3480156102e957600080fd5b506102616102f8366004612530565b610a3d565b34801561030957600080fd5b506102616103183660046125f9565b610a8e565b34801561032957600080fd5b50610333600c5481565b604051908152602001610238565b610261610abf565b34801561035557600080fd5b506102616103643660046125f9565b610b2a565b34801561037557600080fd5b50610333614e1f81565b34801561038b57600080fd5b506010546103999060ff1681565b604051610238919061264b565b3480156103b257600080fd5b506102616103c13660046126fe565b610b45565b3480156103d257600080fd5b506102a56103e13660046125b6565b610b8b565b3480156103f257600080fd5b506007546102a5906001600160a01b031681565b34801561041257600080fd5b50610333600b5481565b34801561042857600080fd5b50610261610c02565b34801561043d57600080fd5b5061033361044c366004612530565b610d33565b34801561045d57600080fd5b50610261610dba565b34801561047257600080fd5b50610261610481366004612530565b610df5565b34801561049257600080fd5b506102616104a13660046125b6565b610e46565b3480156104b257600080fd5b5061022c6104c1366004612530565b60116020526000908152604090205460ff1681565b3480156104e257600080fd5b506102a5610ece565b3480156104f757600080fd5b50610278610edd565b34801561050c57600080fd5b5061026161051b366004612756565b610eec565b34801561052c57600080fd5b50610261610f2e565b34801561054157600080fd5b506103336105503660046125b6565b60126020526000908152604090205481565b34801561056e57600080fd5b506008546102a5906001600160a01b031681565b34801561058e57600080fd5b5061026161059d366004612771565b610f6e565b3480156105ae57600080fd5b506102616105bd3660046125b6565b610f79565b6102616105d03660046127a4565b6110be565b3480156105e157600080fd5b506102616105f03660046125b6565b611212565b34801561060157600080fd5b506103336106103660046125b6565b60009081526012602052604090205490565b34801561062e57600080fd5b50600d5461022c9060ff1681565b34801561064857600080fd5b5061026161065736600461283e565b6112bc565b34801561066857600080fd5b506102786106773660046125b6565b6112f4565b34801561068857600080fd5b506102786113bf565b34801561069d57600080fd5b506102616106ac3660046128a5565b61144d565b3480156106bd57600080fd5b50610333600a5481565b3480156106d357600080fd5b506009546102a5906001600160a01b031681565b3480156106f357600080fd5b5061022c6107023660046128c7565b61148e565b34801561071357600080fd5b506102616107223660046128f1565b6114bc565b34801561073357600080fd5b50610261610742366004612530565b611634565b34801561075357600080fd5b50600d5461022c90610100900460ff1681565b60006001600160e01b031982166380ac58cd60e01b148061079757506001600160e01b03198216635b5e139f60e01b145b806107b257506301ffc9a760e01b6001600160e01b03198316145b92915050565b336107c1610ece565b6001600160a01b0316146107f05760405162461bcd60e51b81526004016107e790612937565b60405180910390fd5b600980546001600160a01b0319166001600160a01b0392909216919091179055565b6060600080546108219061296c565b80601f016020809104026020016040519081016040528092919081815260200182805461084d9061296c565b801561089a5780601f1061086f5761010080835404028352916020019161089a565b820191906000526020600020905b81548152906001019060200180831161087d57829003601f168201915b5050505050905090565b60006108af826116d1565b6109105760405162461bcd60e51b815260206004820152602c60248201527f4552433732313a20617070726f76656420717565727920666f72206e6f6e657860448201526b34b9ba32b73a103a37b5b2b760a11b60648201526084016107e7565b506000908152600460205260409020546001600160a01b031690565b600061093782610b8b565b9050806001600160a01b0316836001600160a01b031614156109a55760405162461bcd60e51b815260206004820152602160248201527f4552433732313a20617070726f76616c20746f2063757272656e74206f776e656044820152603960f91b60648201526084016107e7565b336001600160a01b03821614806109c157506109c1813361148e565b610a2e5760405162461bcd60e51b815260206004820152603860248201527f4552433732313a20617070726f76652063616c6c6572206973206e6f74206f776044820152771b995c881b9bdc88185c1c1c9bdd995908199bdc88185b1b60421b60648201526084016107e7565b610a3883836116ee565b505050565b33610a46610ece565b6001600160a01b031614610a6c5760405162461bcd60e51b81526004016107e790612937565b600780546001600160a01b0319166001600160a01b0392909216919091179055565b610a98338261175c565b610ab45760405162461bcd60e51b81526004016107e7906129a7565b610a38838383611826565b33610ac8610ece565b6001600160a01b031614610aee5760405162461bcd60e51b81526004016107e790612937565b6008546040516001600160a01b03909116904780156108fc02916000818181858888f19350505050158015610b27573d6000803e3d6000fd5b50565b610a38838383604051806020016040528060008152506112bc565b33610b4e610ece565b6001600160a01b031614610b745760405162461bcd60e51b81526004016107e790612937565b8051610b8790600e90602084019061240e565b5050565b6000818152600260205260408120546001600160a01b0316806107b25760405162461bcd60e51b815260206004820152602960248201527f4552433732313a206f776e657220717565727920666f72206e6f6e657869737460448201526832b73a103a37b5b2b760b91b60648201526084016107e7565b33610c0b610ece565b6001600160a01b031614610c315760405162461bcd60e51b81526004016107e790612937565b600a54600b54600160105460ff166003811115610c5057610c50612635565b14610c985760405162461bcd60e51b815260206004820152601860248201527710d40e8814995cd95c9d9959081b5a5b9d0818db1bdcd95960421b60448201526064016107e7565b60008111610ce85760405162461bcd60e51b815260206004820152601e60248201527f43503a204e6f206d6f72652072657365727665206d696e7473206c656674000060448201526064016107e7565b60005b6014811015610d1b57610d093384610d0281612a0e565b95506119c2565b80610d1381612a0e565b915050610ceb565b50600a829055610d2c601482612a29565b600b555050565b60006001600160a01b038216610d9e5760405162461bcd60e51b815260206004820152602a60248201527f4552433732313a2062616c616e636520717565727920666f7220746865207a65604482015269726f206164647265737360b01b60648201526084016107e7565b506001600160a01b031660009081526003602052604090205490565b33610dc3610ece565b6001600160a01b031614610de95760405162461bcd60e51b81526004016107e790612937565b610df36000611af4565b565b33610dfe610ece565b6001600160a01b031614610e245760405162461bcd60e51b81526004016107e790612937565b600880546001600160a01b0319166001600160a01b0392909216919091179055565b33610e4f610ece565b6001600160a01b031614610e755760405162461bcd60e51b81526004016107e790612937565b600d54610100900460ff1615610ec95760405162461bcd60e51b815260206004820152601960248201527810d40e8813595c9adb19481d1c9959481a5cc81b1bd8dad959603a1b60448201526064016107e7565b600c55565b6006546001600160a01b031690565b6060600180546108219061296c565b33610ef5610ece565b6001600160a01b031614610f1b5760405162461bcd60e51b81526004016107e790612937565b600d805460ff1916911515919091179055565b33610f37610ece565b6001600160a01b031614610f5d5760405162461bcd60e51b81526004016107e790612937565b600d805461ff001916610100179055565b610b87338383611b46565b33610f82610ece565b6001600160a01b031614610fa85760405162461bcd60e51b81526004016107e790612937565b614e1f81600a54610fb99190612a40565b11156110045760405162461bcd60e51b815260206004820152601a60248201527943503a204d6f7265207469636b657473207468616e207065747360301b60448201526064016107e7565b600061101261010083612a6e565b61101d906001612a40565b90506000196000826001600160401b0381111561103c5761103c612673565b604051908082528060200260200182016040528015611065578160200160208202803683370190505b50905060005b838110156110a3578282828151811061108657611086612a82565b60209081029190910101528061109b81612a0e565b91505061106b565b5080516110b790600f906020840190612492565b5050505050565b600a543332146110e05760405162461bcd60e51b81526004016107e790612a98565b600260105460ff1660038111156110f9576110f9612635565b1461113e5760405162461bcd60e51b815260206004820152601560248201527410d40e88105b1b1bddc81b1a5cdd0818db1bdcd959605a1b60448201526064016107e7565b60003383604051602001611153929190612ac8565b6040516020818303038152906040528051906020012090506111ac85858080602002602001604051908101604052809392919081815260200183836020028082843760009201919091525050600c549150849050611c11565b6111f35760405162461bcd60e51b815260206004820152601860248201527721a81d1024b73b30b634b21036b2b935b63290383937b7b360411b60448201526064016107e7565b6111fc83611c27565b61120633836119c2565b50600101600a55505050565b3361121b610ece565b6001600160a01b0316146112415760405162461bcd60e51b81526004016107e790612937565b60038111156112865760405162461bcd60e51b815260206004820152601160248201527043503a204f7574206f6620626f756e647360781b60448201526064016107e7565b80600381111561129857611298612635565b6010805460ff191660018360038111156112b4576112b4612635565b021790555050565b6112c6338361175c565b6112e25760405162461bcd60e51b81526004016107e7906129a7565b6112ee84848484611d24565b50505050565b60606112ff826116d1565b6113635760405162461bcd60e51b815260206004820152602f60248201527f4552433732314d657461646174613a2055524920717565727920666f72206e6f60448201526e3732bc34b9ba32b73a103a37b5b2b760891b60648201526084016107e7565b600061136d611d57565b9050600081511161138d57604051806020016040528060008152506113b8565b8061139784611d66565b6040516020016113a8929190612ae5565b6040516020818303038152906040525b9392505050565b600e80546113cc9061296c565b80601f01602080910402602001604051908101604052809291908181526020018280546113f89061296c565b80156114455780601f1061141a57610100808354040283529160200191611445565b820191906000526020600020905b81548152906001019060200180831161142857829003601f168201915b505050505081565b33611456610ece565b6001600160a01b03161461147c5760405162461bcd60e51b81526004016107e790612937565b60009182526012602052604090912055565b6001600160a01b03918216600090815260056020908152604080832093909416825291909152205460ff1690565b600a543332146114de5760405162461bcd60e51b81526004016107e790612a98565b614e1f811061152f5760405162461bcd60e51b815260206004820152601e60248201527f43503a2045786365656473206d6178696d756d2050657420737570706c79000060448201526064016107e7565b3360009081526011602052604090205460ff161561158e5760405162461bcd60e51b815260206004820152601c60248201527b10d40e881059191c995cdcc81a185cc81b5a5b9d19590818481c195d60221b60448201526064016107e7565b33600081815260116020908152604091829020805460ff1916600117905590516115dc926115c0929091879101612ac8565b6040516020818303038152906040528051906020012083611e63565b6116205760405162461bcd60e51b815260206004820152601560248201527443503a20496e76616c6964207369676e617475726560581b60448201526064016107e7565b61162a33826119c2565b600101600a555050565b3361163d610ece565b6001600160a01b0316146116635760405162461bcd60e51b81526004016107e790612937565b6001600160a01b0381166116c85760405162461bcd60e51b815260206004820152602660248201527f4f776e61626c653a206e6577206f776e657220697320746865207a65726f206160448201526564647265737360d01b60648201526084016107e7565b610b2781611af4565b6000908152600260205260409020546001600160a01b0316151590565b600081815260046020526040902080546001600160a01b0319166001600160a01b038416908117909155819061172382610b8b565b6001600160a01b03167f8c5be1e5ebec7d5bd14f71427d1e84f3dd0314c0f7b2291e5b200ac8c7c3b92560405160405180910390a45050565b6000611767826116d1565b6117c85760405162461bcd60e51b815260206004820152602c60248201527f4552433732313a206f70657261746f7220717565727920666f72206e6f6e657860448201526b34b9ba32b73a103a37b5b2b760a11b60648201526084016107e7565b60006117d383610b8b565b9050806001600160a01b0316846001600160a01b0316148061180e5750836001600160a01b0316611803846108a4565b6001600160a01b0316145b8061181e575061181e818561148e565b949350505050565b826001600160a01b031661183982610b8b565b6001600160a01b03161461189d5760405162461bcd60e51b815260206004820152602560248201527f4552433732313a207472616e736665722066726f6d20696e636f72726563742060448201526437bbb732b960d91b60648201526084016107e7565b6001600160a01b0382166118ff5760405162461bcd60e51b8152602060048201526024808201527f4552433732313a207472616e7366657220746f20746865207a65726f206164646044820152637265737360e01b60648201526084016107e7565b61190a6000826116ee565b6001600160a01b0383166000908152600360205260408120805460019290611933908490612a29565b90915550506001600160a01b0382166000908152600360205260408120805460019290611961908490612a40565b909155505060008181526002602052604080822080546001600160a01b0319166001600160a01b0386811691821790925591518493918716917fddf252ad1be2c89b69c2b068fc378daa952ba7f163c4a11628f55a4df523b3ef91a4505050565b6001600160a01b038216611a185760405162461bcd60e51b815260206004820181905260248201527f4552433732313a206d696e7420746f20746865207a65726f206164647265737360448201526064016107e7565b611a21816116d1565b15611a6d5760405162461bcd60e51b815260206004820152601c60248201527b115490cdcc8c4e881d1bdad95b88185b1c9958591e481b5a5b9d195960221b60448201526064016107e7565b6001600160a01b0382166000908152600360205260408120805460019290611a96908490612a40565b909155505060008181526002602052604080822080546001600160a01b0319166001600160a01b03861690811790915590518392907fddf252ad1be2c89b69c2b068fc378daa952ba7f163c4a11628f55a4df523b3ef908290a45050565b600680546001600160a01b038381166001600160a01b0319831681179093556040519116919082907f8be0079c531659141344cd1fd0a4f28419497f9722a3daafe3b4186f6b6457e090600090a35050565b816001600160a01b0316836001600160a01b03161415611ba45760405162461bcd60e51b815260206004820152601960248201527822a9219b99189d1030b8383937bb32903a379031b0b63632b960391b60448201526064016107e7565b6001600160a01b03838116600081815260056020908152604080832094871680845294825291829020805460ff191686151590811790915591519182527f17307eab39ab6107e8899845ad3d59bd9653f200f220920489ca2b5937696c31910160405180910390a3505050565b600082611c1e8584611f3e565b14949350505050565b600f54611c3690610100612b14565b8110611c795760405162461bcd60e51b815260206004820152601260248201527110d40e88125b9d985b1a59081d1a58dad95d60721b60448201526064016107e7565b600f805461010083049160009160ff8516919084908110611c9c57611c9c612a82565b9060005260206000200154915060018183901c16600114611cf45760405162461bcd60e51b815260206004820152601260248201527110d40e88151a58dad95d0818db185a5b595960721b60448201526064016107e7565b806001901b198216915081600f8481548110611d1257611d12612a82565b60009182526020909120015550505050565b611d2f848484611826565b611d3b84848484611fb2565b6112ee5760405162461bcd60e51b81526004016107e790612b33565b6060600e80546108219061296c565b606081611d8a5750506040805180820190915260018152600360fc1b602082015290565b8160005b8115611db45780611d9e81612a0e565b9150611dad9050600a83612a6e565b9150611d8e565b6000816001600160401b03811115611dce57611dce612673565b6040519080825280601f01601f191660200182016040528015611df8576020820181803683370190505b5090505b841561181e57611e0d600183612a29565b9150611e1a600a86612b85565b611e25906030612a40565b60f81b818381518110611e3a57611e3a612a82565b60200101906001600160f81b031916908160001a905350611e5c600a86612a6e565b9450611dfc565b6009546000906001600160a01b0316611ebb5760405162461bcd60e51b815260206004820152601a60248201527943503a20496e76616c69642073797374656d206164647265737360301b60448201526064016107e7565b6000611f13846040517b0ca2ba3432b932bab69029b4b3b732b21026b2b9b9b0b3b29d05199960211b6020820152603c8101829052600090605c01604051602081830303815290604052805190602001209050919050565b6009549091506001600160a01b0316611f2c82856120b0565b6001600160a01b031614949350505050565b600081815b8451811015611faa576000858281518110611f6057611f60612a82565b60200260200101519050808311611f865760008381526020829052604090209250611f97565b600081815260208490526040902092505b5080611fa281612a0e565b915050611f43565b509392505050565b60006001600160a01b0384163b156120a557604051630a85bd0160e11b81526001600160a01b0385169063150b7a0290611ff6903390899088908890600401612b99565b6020604051808303816000875af1925050508015612031575060408051601f3d908101601f1916820190925261202e91810190612bd6565b60015b61208b573d80801561205f576040519150601f19603f3d011682016040523d82523d6000602084013e612064565b606091505b5080516120835760405162461bcd60e51b81526004016107e790612b33565b805181602001fd5b6001600160e01b031916630a85bd0160e11b14905061181e565b506001949350505050565b60008060006120bf85856120cc565b91509150611faa8161213c565b6000808251604114156121035760208301516040840151606085015160001a6120f7878285856122f2565b94509450505050612135565b82516040141561212d57602083015160408401516121228683836123d5565b935093505050612135565b506000905060025b9250929050565b600081600481111561215057612150612635565b14156121595750565b600181600481111561216d5761216d612635565b14156121b65760405162461bcd60e51b815260206004820152601860248201527745434453413a20696e76616c6964207369676e617475726560401b60448201526064016107e7565b60028160048111156121ca576121ca612635565b14156122185760405162461bcd60e51b815260206004820152601f60248201527f45434453413a20696e76616c6964207369676e6174757265206c656e6774680060448201526064016107e7565b600381600481111561222c5761222c612635565b14156122855760405162461bcd60e51b815260206004820152602260248201527f45434453413a20696e76616c6964207369676e6174757265202773272076616c604482015261756560f01b60648201526084016107e7565b600481600481111561229957612299612635565b1415610b275760405162461bcd60e51b815260206004820152602260248201527f45434453413a20696e76616c6964207369676e6174757265202776272076616c604482015261756560f01b60648201526084016107e7565b6000806fa2a8918ca85bafe22016d0b997e4df60600160ff1b0383111561231f57506000905060036123cc565b8460ff16601b1415801561233757508460ff16601c14155b1561234857506000905060046123cc565b6040805160008082526020820180845289905260ff881692820192909252606081018690526080810185905260019060a0016020604051602081039080840390855afa15801561239c573d6000803e3d6000fd5b5050604051601f1901519150506001600160a01b0381166123c5576000600192509250506123cc565b9150600090505b94509492505050565b6000806001600160ff1b038316816123f260ff86901c601b612a40565b9050612400878288856122f2565b935093505050935093915050565b82805461241a9061296c565b90600052602060002090601f01602090048101928261243c5760008555612482565b82601f1061245557805160ff1916838001178555612482565b82800160010185558215612482579182015b82811115612482578251825591602001919060010190612467565b5061248e9291506124cc565b5090565b8280548282559060005260206000209081019282156124825791602002820182811115612482578251825591602001919060010190612467565b5b8082111561248e57600081556001016124cd565b6001600160e01b031981168114610b2757600080fd5b60006020828403121561250957600080fd5b81356113b8816124e1565b80356001600160a01b038116811461252b57600080fd5b919050565b60006020828403121561254257600080fd5b6113b882612514565b60005b8381101561256657818101518382015260200161254e565b838111156112ee5750506000910152565b6000815180845261258f81602086016020860161254b565b601f01601f19169290920160200192915050565b6020815260006113b86020830184612577565b6000602082840312156125c857600080fd5b5035919050565b600080604083850312156125e257600080fd5b6125eb83612514565b946020939093013593505050565b60008060006060848603121561260e57600080fd5b61261784612514565b925061262560208501612514565b9150604084013590509250925092565b634e487b7160e01b600052602160045260246000fd5b602081016004831061266d57634e487b7160e01b600052602160045260246000fd5b91905290565b634e487b7160e01b600052604160045260246000fd5b60006001600160401b03808411156126a3576126a3612673565b604051601f8501601f19908116603f011681019082821181831017156126cb576126cb612673565b816040528093508581528686860111156126e457600080fd5b858560208301376000602087830101525050509392505050565b60006020828403121561271057600080fd5b81356001600160401b0381111561272657600080fd5b8201601f8101841361273757600080fd5b61181e84823560208401612689565b8035801515811461252b57600080fd5b60006020828403121561276857600080fd5b6113b882612746565b6000806040838503121561278457600080fd5b61278d83612514565b915061279b60208401612746565b90509250929050565b6000806000604084860312156127b957600080fd5b83356001600160401b03808211156127d057600080fd5b818601915086601f8301126127e457600080fd5b8135818111156127f357600080fd5b8760208260051b850101111561280857600080fd5b6020928301989097509590910135949350505050565b600082601f83011261282f57600080fd5b6113b883833560208501612689565b6000806000806080858703121561285457600080fd5b61285d85612514565b935061286b60208601612514565b92506040850135915060608501356001600160401b0381111561288d57600080fd5b6128998782880161281e565b91505092959194509250565b600080604083850312156128b857600080fd5b50508035926020909101359150565b600080604083850312156128da57600080fd5b6128e383612514565b915061279b60208401612514565b6000806040838503121561290457600080fd5b8235915060208301356001600160401b0381111561292157600080fd5b61292d8582860161281e565b9150509250929050565b6020808252818101527f4f776e61626c653a2063616c6c6572206973206e6f7420746865206f776e6572604082015260600190565b600181811c9082168061298057607f821691505b602082108114156129a157634e487b7160e01b600052602260045260246000fd5b50919050565b60208082526031908201527f4552433732313a207472616e736665722063616c6c6572206973206e6f74206f6040820152701ddb995c881b9bdc88185c1c1c9bdd9959607a1b606082015260800190565b634e487b7160e01b600052601160045260246000fd5b6000600019821415612a2257612a226129f8565b5060010190565b600082821015612a3b57612a3b6129f8565b500390565b60008219821115612a5357612a536129f8565b500190565b634e487b7160e01b600052601260045260246000fd5b600082612a7d57612a7d612a58565b500490565b634e487b7160e01b600052603260045260246000fd5b60208082526016908201527543503a205765206c696b65207265616c20757365727360501b604082015260600190565b60609290921b6001600160601b0319168252601482015260340190565b60008351612af781846020880161254b565b835190830190612b0b81836020880161254b565b01949350505050565b6000816000190483118215151615612b2e57612b2e6129f8565b500290565b60208082526032908201527f4552433732313a207472616e7366657220746f206e6f6e20455243373231526560408201527131b2b4bb32b91034b6b83632b6b2b73a32b960711b606082015260800190565b600082612b9457612b94612a58565b500690565b6001600160a01b0385811682528416602082015260408101839052608060608201819052600090612bcc90830184612577565b9695505050505050565b600060208284031215612be857600080fd5b81516113b8816124e156fea26469706673582212201a8ce4cae9a6e6f7e6bd1ad126270873df014fbde41c48bcd6eb25acf97a3b9464736f6c634300080a0033",
  "immutableReferences": {},
  "source": "// SPDX-License-Identifier: MIT\npragma solidity ^0.8.10;\n\nimport \"@openzeppelin/contracts/token/ERC721/ERC721.sol\";\nimport \"@openzeppelin/contracts/utils/cryptography/ECDSA.sol\";\nimport \"@openzeppelin/contracts/access/Ownable.sol\";\nimport \"@openzeppelin/contracts/utils/cryptography/MerkleProof.sol\";\n\ncontract HiddenLabs is ERC721, Ownable {\n  using ECDSA for bytes32;\n\n  // Addresses\n  address public _ccAddress;\n  address public _w1 = 0x1fFa3371A45C22B1284fE5a251eD64F40580a1E3;\n  address public _systemAddress = address(0);\n\n  // Token mint values\n  uint256 public constant MAX_PET_ID = 19999;\n  // Track minting outside of Cool Cat ids.\n  uint256 public _currentPetId = 9999;\n  // for giveaways, staff and partnerships\n  uint256 public _reserved = 100;\n\n  bytes32 public _merkleRoot = 0x0;\n\n  bool public _claimsPaused = true;\n  bool public _merkleLocked = false;\n  string public _baseTokenURI;\n\n  // For bit manipulation\n  uint256[] _allowListTicketSlots;\n\n  // Handle public mint access\n  enum EPublicMintStatus {\n    CLOSED,\n    RESERVED_MINT,\n    ALLOW_LIST,\n    OPEN\n  }\n  EPublicMintStatus public _publicMintStatus;\n\n  // Tracks if address has minted\n  mapping(address => bool) public _minted;\n\n  // Genetics: petId => genetics\n  mapping(uint256 => bytes32) public _petGenetics;\n\n  constructor(string memory baseURI) ERC721(\"Cool Pets\", \"PETS\") {\n    _baseTokenURI = baseURI;\n  }\n\n  /// @notice Adopt via public minting\n  /// @dev Id tracking starts at 9999 to prevent id contamination\n  /// @dev Signature to help avoid bot minting\n  /// @param salt Some simple salting for the signature\n  /// @param signature Verify that this transaction came from the desired location\n  function mintHiddenLabs(uint256 salt, bytes memory signature) external {\n    uint256 currentPetId = _currentPetId;\n    require(msg.sender == tx.origin, \"CP: We like real users\");\n    require(currentPetId < MAX_PET_ID, \"CP: Exceeds maximum Pet supply\");\n    require(_minted[msg.sender] == false, \"CP: Address has minted a pet\");\n\n    // Mark address as minted\n    _minted[msg.sender] = true;\n\n    // verify\n    require(_isValidSignature(keccak256(abi.encodePacked(msg.sender, salt)), signature), \"CP: Invalid signature\");\n\n    // Pets bought by non-cat holders will have token ID increasing from 9,999 onwards, after cat and allow list holders\n    _mint(msg.sender, currentPetId);\n\n    unchecked {\n      currentPetId++;\n    }\n    _currentPetId = currentPetId;\n  }\n\n  /// @notice Adopt via allow list with reference to a ticket number + merkle tree\n  /// @dev Id tracking starts at 9999 to prevent id contamination\n  /// @dev We could allow contracts to mint but saving gas for users is more important\n  /// @dev Dont start ticketNumber at 0\n  /// @param merkleProof Merkle proof for verifcation\n  /// @param ticketNumber ticket number assigned to user's address\n  function allowListAdopt(bytes32[] calldata merkleProof, uint256 ticketNumber) external payable {\n    uint256 currentPetId = _currentPetId;\n    require(msg.sender == tx.origin, \"CP: We like real users\");\n    require(_publicMintStatus == EPublicMintStatus.ALLOW_LIST, \"CP: Allow list closed\");\n\n    // Merkle magic\n    bytes32 leaf = keccak256(abi.encodePacked(msg.sender, ticketNumber));\n    require(MerkleProof.verify(merkleProof, _merkleRoot, leaf), \"CP: Invalid merkle proof\");\n\n    // claim ticket\n    _claimTicket(ticketNumber);\n\n    // Pets bought by non-cat holders will have token ID increasing from 9,999 onwards\n    _mint(msg.sender, currentPetId);\n\n    unchecked {\n      currentPetId++;\n    }\n    _currentPetId = currentPetId;\n  }\n\n  /// @notice To check and track ticket numbers being claimed against\n  /// @dev Returns error if ticket is larger than range or has been claimed against\n  /// @dev Uses bit manipulation in place of mapping\n  /// @dev https://medium.com/donkeverse/hardcore-gas-savings-in-nft-minting-part-3-save-30-000-in-presale-gas-c945406e89f0\n  /// @param ticketNumber ticket number assigned to user's address\n  function _claimTicket(uint256 ticketNumber) internal {\n    require(ticketNumber < _allowListTicketSlots.length * 256, \"CP: Invalid ticket\");\n\n    uint256 storageOffset; // [][][]\n    uint256 localGroup; // [][x][]\n    uint256 offsetWithin256; // 0xF[x]FFF\n\n    // We can trust the admin arent adding silly numbers - we hope :P\n    unchecked {\n      storageOffset = ticketNumber / 256;\n      offsetWithin256 = ticketNumber % 256;\n    }\n    localGroup = _allowListTicketSlots[storageOffset];\n\n    // [][x][] > 0x1111[x]1111 > 1\n    require((localGroup >> offsetWithin256) & uint256(1) == 1, \"CP: Ticket claimed\");\n\n    // [][x][] > 0x1111[x]1111 > (1) flip to (0)\n    localGroup = localGroup & ~(uint256(1) << offsetWithin256);\n\n    _allowListTicketSlots[storageOffset] = localGroup;\n  }\n\n\n  /// @notice Let Admin mint out 100 pets for giveaways and collabs\n  function reservedMint() external onlyOwner {\n    uint256 currentPetId = _currentPetId;\n    uint256 reserved = _reserved;\n\n    require(_publicMintStatus == EPublicMintStatus.RESERVED_MINT, \"CP: Reserved mint closed\");\n    require(reserved > 0, \"CP: No more reserve mints left\");\n\n    for (uint256 i; i < 20; i++) {\n      _mint(msg.sender, currentPetId++);\n    }\n\n    _currentPetId = currentPetId;\n    reserved -= 20;\n    _reserved = reserved;\n  }\n\n  /// @notice Pause claiming of pets by cat holders\n  /// @param val True or false\n  function pauseClaim(bool val) external onlyOwner {\n    _claimsPaused = val;\n  }\n\n  /// @notice Change the public minting status\n  /// @param status Status to change to\n  function setPublicMintStatus(uint256 status) external onlyOwner {\n    require(status <= uint256(EPublicMintStatus.OPEN), \"CP: Out of bounds\");\n\n    _publicMintStatus = EPublicMintStatus(status);\n  }\n\n  /// @notice Sets the mint data slot length that tracks the state of tickets\n  /// @param num number of tickets available for allow list\n  function setMintSlotLength(uint256 num) external onlyOwner {\n    // Prevents us from over filling the Allow List\n    require(_currentPetId + num <= MAX_PET_ID, \"CP: More tickets than pets\");\n\n    // account for solidity rounding down\n    uint256 slotCount = (num / 256) + 1;\n\n    // set each element in the slot to binaries of 1\n    uint256 MAX_INT = 0xffffffffffffffffffffffffffffffffffffffffffffffffffffffffffffffff;\n\n    // create a temporary array based on number of slots required\n    uint256[] memory arr = new uint256[](slotCount);\n\n    // fill each element with MAX_INT\n    for (uint256 i; i < slotCount; i++) {\n      arr[i] = MAX_INT;\n    }\n\n    _allowListTicketSlots = arr;\n  }\n\n  /// @notice Set baseURI\n  /// @param baseURI URI of the pet image server\n  function setBaseURI(string memory baseURI) external onlyOwner {\n    _baseTokenURI = baseURI;\n  }\n\n  /// @notice Get uri of tokens\n  /// @return string Uri\n  function _baseURI() internal view virtual override returns (string memory) {\n    return _baseTokenURI;\n  }\n\n\n  /// @notice Set final genetics of a single pet\n  /// @param id Id of the pet in question\n  /// @param genes Genetics details of pet in question\n  function setGenetics(uint256 id, bytes32 genes) external onlyOwner {\n    _petGenetics[id] = genes;\n  }\n\n  /// @notice Set the system address\n  /// @param systemAddress Address to set as systemAddress\n  function setSystemAddress(address systemAddress) external onlyOwner {\n    _systemAddress = systemAddress;\n  }\n\n  /// @notice Se the Cool Cats contract address\n  /// @param ccAddress Address of the Cool Cats contract\n  function setCoolCatsAddress(address ccAddress) external onlyOwner {\n    _ccAddress = ccAddress;\n  }\n\n  /// @notice Set withdrawal address\n  /// @param wallet Address of withdrawal target\n  function setWithdrawalWallet(address wallet) external onlyOwner {\n    _w1 = wallet;\n  }\n\n  /// @notice Set new Merkle Root\n  /// @param merkleRoot Root of merkle tree\n  function setMerkleRoot(bytes32 merkleRoot) external onlyOwner {\n    require(!_merkleLocked, \"CP: Merkle tree is locked\");\n    _merkleRoot = merkleRoot;\n  }\n\n  /// @notice Get genetics for this cat - future use (maybe :))\n  /// @param id Id of the pet in question\n  /// @return genes Genetics of the desired pet\n  function getGenetics(uint256 id) external view returns (bytes32 genes) {\n    return _petGenetics[id];\n  }\n\n  /// @notice Verify hashed data\n  /// param hash Hashed data bundle\n  /// @param signature Signature to check hash against\n  /// @return bool Is verified or not\n  function _isValidSignature(bytes32 hash, bytes memory signature) internal view returns (bool) {\n    require(_systemAddress != address(0), \"CP: Invalid system address\");\n    bytes32 signedHash = hash.toEthSignedMessageHash();\n    return signedHash.recover(signature) == _systemAddress;\n  }\n\n  /// @notice Withdraw funds from contract\n  function withdraw() external payable onlyOwner {\n    payable(_w1).transfer(address(this).balance);\n  }\n\n  /// @notice Lock the merkle tree so it can not be edited\n  function lockMerkle() external onlyOwner {\n    _merkleLocked = true;\n  }\n}",
  "sourcePath": "/Users/jake/code/hiddenlabs/contracts/HiddenLabs.sol",
  "compiler": {
    "name": "solc",
    "version": "0.8.10+commit.fc410830.Emscripten.clang"
  },
  "schemaVersion": "3.4.6",
  "updatedAt": "2022-03-25T23:02:55.398Z",
  "networkType": "ethereum",
  "devdoc": {
    "kind": "dev",
    "methods": {
      "allowListAdopt(bytes32[],uint256)": {
        "details": "Id tracking starts at 9999 to prevent id contaminationWe could allow contracts to mint but saving gas for users is more importantDont start ticketNumber at 0",
        "params": {
          "merkleProof": "Merkle proof for verifcation",
          "ticketNumber": "ticket number assigned to user's address"
        }
      },
      "approve(address,uint256)": {
        "details": "See {IERC721-approve}."
      },
      "balanceOf(address)": {
        "details": "See {IERC721-balanceOf}."
      },
      "getApproved(uint256)": {
        "details": "See {IERC721-getApproved}."
      },
      "getGenetics(uint256)": {
        "params": {
          "id": "Id of the pet in question"
        },
        "returns": {
          "genes": "Genetics of the desired pet"
        }
      },
      "isApprovedForAll(address,address)": {
        "details": "See {IERC721-isApprovedForAll}."
      },
      "mintHiddenLabs(uint256,bytes)": {
        "details": "Id tracking starts at 9999 to prevent id contaminationSignature to help avoid bot minting",
        "params": {
          "salt": "Some simple salting for the signature",
          "signature": "Verify that this transaction came from the desired location"
        }
      },
      "name()": {
        "details": "See {IERC721Metadata-name}."
      },
      "owner()": {
        "details": "Returns the address of the current owner."
      },
      "ownerOf(uint256)": {
        "details": "See {IERC721-ownerOf}."
      },
      "pauseClaim(bool)": {
        "params": {
          "val": "True or false"
        }
      },
      "renounceOwnership()": {
        "details": "Leaves the contract without owner. It will not be possible to call `onlyOwner` functions anymore. Can only be called by the current owner. NOTE: Renouncing ownership will leave the contract without an owner, thereby removing any functionality that is only available to the owner."
      },
      "safeTransferFrom(address,address,uint256)": {
        "details": "See {IERC721-safeTransferFrom}."
      },
      "safeTransferFrom(address,address,uint256,bytes)": {
        "details": "See {IERC721-safeTransferFrom}."
      },
      "setApprovalForAll(address,bool)": {
        "details": "See {IERC721-setApprovalForAll}."
      },
      "setBaseURI(string)": {
        "params": {
          "baseURI": "URI of the pet image server"
        }
      },
      "setCoolCatsAddress(address)": {
        "params": {
          "ccAddress": "Address of the Cool Cats contract"
        }
      },
      "setGenetics(uint256,bytes32)": {
        "params": {
          "genes": "Genetics details of pet in question",
          "id": "Id of the pet in question"
        }
      },
      "setMerkleRoot(bytes32)": {
        "params": {
          "merkleRoot": "Root of merkle tree"
        }
      },
      "setMintSlotLength(uint256)": {
        "params": {
          "num": "number of tickets available for allow list"
        }
      },
      "setPublicMintStatus(uint256)": {
        "params": {
          "status": "Status to change to"
        }
      },
      "setSystemAddress(address)": {
        "params": {
          "systemAddress": "Address to set as systemAddress"
        }
      },
      "setWithdrawalWallet(address)": {
        "params": {
          "wallet": "Address of withdrawal target"
        }
      },
      "supportsInterface(bytes4)": {
        "details": "See {IERC165-supportsInterface}."
      },
      "symbol()": {
        "details": "See {IERC721Metadata-symbol}."
      },
      "tokenURI(uint256)": {
        "details": "See {IERC721Metadata-tokenURI}."
      },
      "transferFrom(address,address,uint256)": {
        "details": "See {IERC721-transferFrom}."
      },
      "transferOwnership(address)": {
        "details": "Transfers ownership of the contract to a new account (`newOwner`). Can only be called by the current owner."
      }
    },
    "version": 1
  },
  "userdoc": {
    "kind": "user",
    "methods": {
      "allowListAdopt(bytes32[],uint256)": {
        "notice": "Adopt via allow list with reference to a ticket number + merkle tree"
      },
      "getGenetics(uint256)": {
        "notice": "Get genetics for this cat - future use (maybe :))"
      },
      "lockMerkle()": {
        "notice": "Lock the merkle tree so it can not be edited"
      },
      "mintHiddenLabs(uint256,bytes)": {
        "notice": "Adopt via public minting"
      },
      "pauseClaim(bool)": {
        "notice": "Pause claiming of pets by cat holders"
      },
      "reservedMint()": {
        "notice": "Let Admin mint out 100 pets for giveaways and collabs"
      },
      "setBaseURI(string)": {
        "notice": "Set baseURI"
      },
      "setCoolCatsAddress(address)": {
        "notice": "Se the Cool Cats contract address"
      },
      "setGenetics(uint256,bytes32)": {
        "notice": "Set final genetics of a single pet"
      },
      "setMerkleRoot(bytes32)": {
        "notice": "Set new Merkle Root"
      },
      "setMintSlotLength(uint256)": {
        "notice": "Sets the mint data slot length that tracks the state of tickets"
      },
      "setPublicMintStatus(uint256)": {
        "notice": "Change the public minting status"
      },
      "setSystemAddress(address)": {
        "notice": "Set the system address"
      },
      "setWithdrawalWallet(address)": {
        "notice": "Set withdrawal address"
      },
      "withdraw()": {
        "notice": "Withdraw funds from contract"
      }
    },
    "version": 1
  }
}